:020000000115E8
:02000300012ECC
:10001300015B75A88575900111A175900211A175F9
:10002300900411A175900811A10118C00375020372
:1000330075010875900111887590021188759004F7
:1000430011887590081188D501E9D502E37502403E
:1000530011A1D502FBD00332C00375020975010259
:1000630075900111BA75900811BA75900411BA759B
:10007300900211BAD501E9D502E375022011A1D589
:1000830002FBD00332750301758901758C85758A6E
:10009300EED28C208D020196C28DD503EE2275031C
:1000A30002758901758C85758AEED28C208D0201CB
:1000B300AFC28DD503EE22750304758901758C8556
:1000C300758AEED28C208D0201C8C28DD503EE2233
:0000D3002D
:00000001FF
