:020000000115E8
:02000300012ECC
:10001300016275A88575900111AF75900211AF75D6
:10002300900411AF75900811AF0118C00375020356
:1000330075010811E175900111967590021196757D
:10004300900411967590081196D501E7D502E11138
:10005300E175024011AFD502FB75A0FFD00332C09A
:100063000375020975010211E175900111C87590BC
:100073000811C875900411C875900211C8D501E71D
:10008300D502E111E175022011AFD502FB75A0FF86
:10009300D00332750301758901758C85758AEED29B
:1000A3008C208D0201A4C28DD503EE227503027547
:1000B3008901758C85758AEED28C208D0201BDC2B3
:1000C3008DD503EE22750304758901758C85758AB8
:1000D300EED28C208D0201D6C28DD503EE22900084
:1000E300EAE50293F5A022C0F9A4B0999283F880BF
:0100F300907C
:00000001FF
